S01F0000537072696E7431305F49676F725F3131383131313134322E7372656311
S11300000C9424010C94B3010C9441010C9441010F
S11300100C9441010C94D3010C9441010C944101C2
S11300200C9441010C9441010C9441010C94410144
S11300300C9441010C9441010C9443010C94410132
S11300400C9441010C9441010C9441010C94410124
S11300500C9441010C9441010C9441010C94410114
S11300600C9441010C944101000000000000005F69
S113007000000007000700147F147F14242A7F2A3D
S11300801223130864623649552250000503000008
S1130090001C2241000041221C0014083E081408E0
S11300A0083E0808005030000008080808080060EE
S11300B060000020100804023E5149453E00427F82
S11300C0400042615149462141454B311814127F89
S11300D01027454545393C4A494930017109050312
S11300E03649494936064949291E0036360000007A
S11300F0563600000814224100141414141400414C
S11301002214080201510906324979413E7E111137
S1130110117E7F494949363E414141227F41412276
S11301201C7F494949417F090909013E4149497AEE
S11301307F0808087F00417F41002040413F017F44
S1130140081422417F404040407F020C027F7F041C
S113015008107F3E4141413E7F090909063E415155
S1130160215E7F09192946464949493101017F0128
S1130170013F4040403F1F2040201F3F4038403F48
S11301806314081463070870080761514945430064
S11301907F41410002040810200041417F00040215
S11301A00102044040404040000102040020545435
S11301B054787F48444438384444442038444448BC
S11301C07F3854545418087E0901020C5252523E8E
S11301D07F0804047800447D40002040443D007FB3
S11301E01028440000417F40007C041804787C08F7
S11301F004047838444444387C141414080814144F
S1130200187C7C080404084854545420043F444097
S1130210203C4040207C1C2040201C3C4030403C82
S113022044281028440C5050503C4464544C44001E
S11302300836410000007F00000041360800100825
S1130240081008000000000011241FBECFEFD8E002
S1130250DEBFCDBF11E0A0E0B1E0ECEAF0E202C005
S113026005900D92A234B107D9F723E0A2E4B1E0DE
S113027001C01D92AC34B207E1F70E9451070C94FF
S113028054100C9400001F920F9200905F000F9284
S113029011242F933F934F935F936F937F938F9387
S11302A09F93AF93BF93EF93FF93CF93DF93CDB718
S11302B0DEB78091450190914601A0914701B0912C
S11302C048010196A11DB11D8093450190934601FB
S11302D0A0934701B0934801809145019091460154
S11302E0A0914701B091480128E833E140E050E093
S11302F0BC01CD010E941A0DDC01CB01892B8A2B94
S11303008B2B19F481E080934301809145019091F6
S11303104601A0914701B091480124EF31E040E04B
S113032050E0BC01CD010E941A0DDC01CB01892BE8
S11303308A2B8B2B19F481E0809344010000DF9118
S1130340CF91FF91EF91BF91AF919F918F917F9149
S11303506F915F914F913F912F910F9000925F00A9
S11303600F901F9018951F920F9200905F000F92AC
S113037011248F939F93CF93DF93CDB7DEB78091F2
S1130380490190914A01019690934A018093490151
S11303900000DF91CF919F918F910F9000925F00A9
S11303A00F901F9018951F920F9200905F000F926C
S11303B01124EF92FF920F931F932F933F934F9328
S11303C05F936F937F938F939F93AF93BF93EF93B9
S11303D0FF93CF93DF93CDB7DEB789E290E0FC01C2
S11303E08081882F90E080719927892B09F057C06C
S11303F080914201882F90E081309105A9F08230EC
S113040091051CF4892B39F04AC082309105F1F032
S1130410039771F144C09091000181E0992309F0A0
S113042080E0809300013BC0809101019091020122
S113043081349F4178F580910101909102018851A6
S11304409C4F909302018093010124C08091030189
S11304509091040181349F41F8F4809103019091BB
S1130460040188519C4F909304018093030114C0AC
S1130470809105019091060181349F4178F4809127
S113048005019091060188519C4F90930601809339
S1130490050104C0000003C0000001C0000089E29F
S11304A090E0FC018081882F90E080729927892B4D
S11304B009F057C080914201882F90E08130910566
S11304C0A9F0823091051CF4892B39F04AC082309E
S11304D09105F1F0039771F144C09091000181E01E
S11304E0992309F080E0809300013BC080910101D1
S11304F090910201803D974078F1809101019091A3
S11305000201885E9340909302018093010124C00C
S11305108091030190910401803D9740F8F080910F
S1130520030190910401885E9340909304018093A9
S1130530030114C08091050190910601803D97400C
S113054078F08091050190910601885E9340909324
S113055006018093050104C0000003C0000001C02F
S1130560000089E290E0FC018081882F90E0807493
S11305709927892B61F480914201833030F4809172
S113058042018F5F8093420102C010924201E090C9
S11305900001F090010100910201109103012091EA
S11305A004013091050140910601509107016091C9
S11305B008017091090180910A010E9493040000CE
S11305C0DF91CF91FF91EF91BF91AF919F918F9167
S11305D07F916F915F914F913F912F911F910F9157
S11305E0FF90EF900F9000925F000F901F9018956E
S11305F0AF92BF92CF92DF92EF92FF920F931F932D
S1130600CF93DF93CDB7DEB7A1970FB6F894DEBFD3
S11306100FBECDBFEB8AFC8A0D8B1E8B2F8B388FC0
S1130620498F5A8F6B8F7C8F8D8FAE8EBF8EC8A2F1
S1130630D9A222E1EBE0F1E0CE010196DC010190C8
S11306400D922A95E1F785E290E020914B01022E6C
S1130650000C330B220F331FAE014F5F5F4F240F8B
S1130660351FF90120813181FC01208380914B01E8
S1130670082E000C990B880F991F9E012F5F3F4F86
S1130680820F931FFC018081918188279170892BAF
S113069051F08BE290E02BE230E0F90120812068F8
S11306A0FC01208309C08BE290E02BE230E0F901E9
S11306B020812F77FC01208380914B01082E000CB0
S11306C0990B880F991F9E012F5F3F4F820F931F35
S11306D0FC01808191818F709170892B51F08BE2A4
S11306E090E02BE230E0F90120812160FC012083BD
S11306F009C08BE290E02BE230E0F90120812E7FEB
S1130700FC01208380914B01082E000C990B880F6B
S1130710991F9E012F5F3F4F820F931FFC01808121
S11307209181807F9927892B51F08BE290E02BE215
S113073030E0F90120812260FC01208309C08BE2B2
S113074090E02BE230E0F90120812D7FFC01208331
S113075080914B0184300CF042C080914C01909107
S11307604D01A0914E01B0914F012E8D3F8D48A1B6
S113077059A1281B390B4A0B5B0B8C899D899695D3
S1130780879596958795CC01A0E0B0E028173907A6
S11307904A075B0708F4B5C080914B018F5F8093D3
S11307A04B018C899D8996958795969587959C0193
S11307B040E050E080914C0190914D01A0914E0198
S11307C0B0914F01820F931FA41FB51F80934C015A
S11307D090934D01A0934E01B0934F0192C080912C
S11307E04B018530D4F580914C0190914D01A0913D
S11307F04E01B0914F012E8D3F8D48A159A1281B68
S1130800390B4A0B5B0B888D998DCC01A0E0B0E0CD
S1130810281739074A075B0708F473C080914B0116
S11308208F5F80934B01888D998D9C0140E050E04F
S113083080914C0190914D01A0914E01B0914F01D6
S1130840820F931FA41FB51F80934C0190934D01F9
S1130850A0934E01B0934F0154C080914B01893055
S11308600CF041C080914C0190914D01A0914E013A
S1130870B0914F012E8D3F8D48A159A1281B390BF2
S11308804A0B5B0B8E899F899695879596958795DC
S1130890CC01A0E0B0E0281739074A075B0788F1CC
S11308A080914B018F5F80934B018E899F89969530
S11308B08795969587959C0140E050E080914C0186
S11308C090914D01A0914E01B0914F01820F931F61
S11308D0A41FB51F80934C0190934D01A0934E012A
S11308E0B0934F010EC010924B018E8D9F8DA8A125
S11308F0B9A180934C0190934D01A0934E01B09304
S11309004F010000A1960FB6F894DEBF0FBECDBF15
S1130910DF91CF911F910F91FF90EF90DF90CF90D7
S1130920BF90AF900895EF92FF920F931F93CF93D0
S1130930DF93CDB7DEB76C970FB6F894DEBF0FBE6A
S1130940CDBFEA8AFB8A0C8B1D8B2E8B3F8B488F85
S1130950598F6A8F7B8F8C8F8A89882311F081E469
S113096001C08DE489831A828B899C899695879529
S113097096958795969587959C01A5ECB0E20E9483
S11309805B0D929582958F7089279F708927292FF7
S11309902F938F938DE191E0892F8F938DE191E0D7
S11309A08F93CE010396292F2F938F930E946A0D64
S11309B00F900F900F900F900F900F908D899E893C
S11309C09695879596958795969587959C01A5EC20
S11309D0B0E20E945B0D929582958F7089279F707B
S11309E08927292F2F938F938DE191E0892F8F935E
S11309F08DE191E08F93CE010596292F2F938F934C
S1130A000E946A0D0F900F900F900F900F900F900F
S1130A108F89988D969587959695879596958795C0
S1130A209C01A5ECB0E20E945B0D929582958F70BB
S1130A3089279F708927292F2F938F938DE191E028
S1130A40892F8F938DE191E08F93CE010796292F03
S1130A502F938F930E946A0D0F900F900F900F9019
S1130A600F900F90898D9A8D292F2F938F938DE15D
S1130A7091E0892F8F938DE191E08F93CE010996B8
S1130A80292F2F938F930E946A0D0F900F900F9030
S1130A900F900F900F908B8D9C8D292F2F938F93F8
S1130AA08DE191E0892F8F938DE191E08F93CE01B9
S1130AB00D96292F2F938F930E946A0D0F900F90FC
S1130AC00F900F900F900F900E940B0A65E080E04A
S1130AD00E94810B61E080E291E00E943E0B65E0A0
S1130AE08EE10E94810B898161E00E948C0A6FE093
S1130AF080E00E94810B61E085E291E00E943E0B60
S1130B006FE08EE10E94810BCE01039661E00E94AA
S1130B103E0B61E08AE291E00E943E0B69E180E0D5
S1130B200E94810B61E08CE291E00E943E0B69E13E
S1130B308EE10E94810BCE01059661E00E943E0B7E
S1130B4061E08AE291E00E943E0B63E280E00E9451
S1130B50810B61E081E391E00E943E0B63E28EE150
S1130B600E94810BCE01079661E00E943E0B61E07A
S1130B708AE291E00E943E0B80914201880F982FF7
S1130B80990F990F890F8B5F682F8AE20E94810B5E
S1130B9061E086E391E00E943E0B4FE262E082E373
S1130BA00E94610B69E184E30E94810BCE010996E6
S1130BB062E00E943E0B68E287E30E94810B61E0E1
S1130BC088E391E00E943E0B60E084E30E94810B85
S1130BD0CE010D9662E00E943E0B6FE087E30E9417
S1130BE0810B61E08EE391E00E943E0B0E94940B26
S1130BF000006C960FB6F894DEBF0FBECDBFDF9138
S1130C00CF911F910F91FF90EF900895CF93DF93B1
S1130C1000D0CDB7DEB79A83898389819A81FC019C
S1130C208081882309F4C0C089819A81FC011082E3
S1130C308091490190914A01909351018093500110
S1130C4010924A01109249012091500130915101B2
S1130C50C901880F991F820F931F880F991F880F4E
S1130C60991F9093080180930701809100018823C4
S1130C7009F49AC08091070190910801CC01A0E089
S1130C80B0E0BC01CD010E94EA0BDC01CB012AE9F2
S1130C9039E945E851E4BC01CD010E94790CDC013D
S1130CA0CB01BC01CD010E94BB0BDC01CB019695AD
S1130CB0879596958795969587959C01A5ECB0E2C6
S1130CC00E945B0D929582958F7089279F7089276A
S1130CD0AC014F5F5F4F28EE33E0429FC001439F5A
S1130CE0900D529F900D1124909302018093010165
S1130CF080910101909102018932934230F088E29F
S1130D0093E29093020180930101809107019091F5
S1130D100801CC01A0E0B0E0BC01CD010E94EA0BC7
S1130D20DC01CB012AE939E945E851E4BC01CD01F4
S1130D300E94790CDC01CB01BC01CD010E94BB0BEC
S1130D40DC01CB0196958795969587959695879521
S1130D509C01A5ECB0E20E945B0DAC01529542955A
S1130D604F7045275F70452728EE33E0429FC0014E
S1130D70439F900D529F900D112428E233E2A90164
S1130D80481B590BCA01909304018093030180917D
S1130D9003019091040181309D4730F088EE93E087
S1130DA0909304018093030100000F900F90DF9152
S1130DB0CF910895EF92FF920F931F93CF93DF93F8
S1130DC000D0CDB7DEB79A83898389819A81FC01EB
S1130DD08081882309F45BC088E790E0FC0180816E
S1130DE091819C0140E050E088E19CE9AFE0B0E0F3
S1130DF0BC01CD010E943C0DDA01C901885E93401B
S1130E0090930A01809309018091090190910A014C
S1130E108D32914028F084EB90E0FC0110821BC0DD
S1130E2086E290E0FC018081882F90E0807499270D
S1130E30892B31F08091070190910801892B31F0C1
S1130E4084EB90E02FEFFC01208305C084EB90E05D
S1130E5025E5FC01208389819A81FC011082E090C0
S1130E600001F09001010091020110910301209111
S1130E7004013091050140910601509107016091F0
S1130E8008017091090180910A010E9493040000F5
S1130E900F900F90DF91CF911F910F91FF90EF90E2
S1130EA00895AF92BF92CF92DF92EF92FF920F9389
S1130EB01F93CF93DF93CDB7DEB784E290E02FEF9B
S1130EC0FC0120838AE290E02BE8FC01208387E286
S1130ED090E027E230E0F90120812F73FC012083A8
S1130EE08BE290E024E7FC01208388E290E028E292
S1130EF030E0F90120812064FC01208389E690E040
S1130F002AE0FC0120838DE390E023E0FC012083B0
S1130F1088E690E026E0FC0120838DE690E020E75F
S1130F20FC01208384E490E022E0FC01208385E43A
S1130F3090E023E0FC01208387E490E029EFFC01AA
S1130F4020838EE690E022E0FC0120838CE790E091
S1130F5020E4FC0120838AE790E027EEFC01208353
S1130F608BE790E0FC0110828EE790E021E0FC0129
S1130F70208380EB90E023E2FC01208381EB90E06E
S1130F8026E0FC01208384EB90E020E8FC01208330
S1130F9078940E948B088091450190914601A0911C
S1130FA04701B09148015C016D01E0900001F090AF
S1130FB0010100910201109103012091040130917B
S1130FC0050140910601509107016091080170915B
S1130FD0090180910A010E94F80283E491E00E94D1
S1130FE0060684E491E00E94DA06D5CF1F93CF93DE
S1130FF0DF9300D0CDB7DEB789836A8388E290E0BF
S113100028E230E0F90120812D7FFC0120838A81D0
S1131010882351F088E290E028E230E0F901208151
S11310202860FC01208309C088E290E028E230E0D7
S1131030F9012081277FFC01208310E03CC08981D5
S1131040882F90E0212F30E047E050E0BA01621B86
S1131050730B9B0102C0959587952A95E2F78170E1
S11310609927892B51F088E290E028E230E0F901D9
S113107020812061FC01208309C088E290E028E2FD
S113108030E0F90120812F7EFC01208388E290E08A
S113109028E230E0F90120812062FC01208388E20B
S11310A090E028E230E0F90120812F7DFC012083CB
S11310B0812F11E0180F183010F288E290E028E236
S11310C030E0F90120812260FC01208300000F90B0
S11310D00F90DF91CF911F910895CF93DF931F92CB
S11310E0CDB7DEB7898360E089810E94F6070000EE
S11310F00F90DF91CF910895CF93DF931F92CDB7D7
S1131100DEB7898361E089810E94F60700000F90B1
S1131110DF91CF9108950F931F93CF93DF93CDB7B2
S1131120DEB76C970FB6F894DEBF0FBECDBF87E273
S113113090E027E230E0F90120812260FC01208365
S113114087E290E027E230E0F90120812460FC018D
S1131150208387E290E027E230E0F90120812860D3
S1131160FC01208387E290E027E230E0F90120814E
S11311702061FC01208387E290E027E230E0F9015E
S113118020812062FC01208388E290E028E230E0A4
S1131190F90120812460FC01208388E290E028E2A8
S11311A030E0F90120812260FC01208380E090E09E
S11311B0A0E2B1E489839A83AB83BC8320E030E06E
S11311C04AE753E469817A818B819C810E94790C7E
S11311D0DC01CB018B8B9C8BAD8BBE8B20E030E094
S11311E040E85FE36B897C898D899E890E94B60BF8
S11311F088232CF481E090E0988F8F8B3FC020E00F
S11312003FEF4FE757E46B897C898D899E890E9463
S1131210740C18164CF520E030E040E251E469818A
S11312207A818B819C810E94790CDC01CB01BC0109
S1131230CD010E94BB0BDC01CB01988F8F8B0FC0BB
S113124089E190E09A8F898F898D9A8D0197F1F7C2
S11312509A8F898F8F89988D0197988F8F8B8F891B
S1131260988D892B69F714C06B897C898D899E8937
S11312700E94BB0BDC01CB01988F8F8B8F89988DDB
S11312809C8F8B8F8B8D9C8D0197F1F79C8F8B8F0F
S113129088E290E028E230E0F90120812B7FFC0114
S11312A0208380E090E0ACE8B2E48D839E83AF833A
S11312B0B88720E030E04AE753E46D817E818F8176
S11312C098850E94790CDC01CB0189879A87AB87CA
S11312D0BC8720E030E040E85FE369857A858B8550
S11312E09C850E94B60B88232CF481E090E09E87B5
S11312F08D873FC020E03FEF4FE757E469857A854B
S11313008B859C850E94740C18164CF520E030E007
S113131040E251E46D817E818F8198850E94790C31
S1131320DC01CB01BC01CD010E94BB0BDC01CB0174
S11313309E878D870FC089E190E0988B8F878F857A
S113134098890197F1F7988B8F878D859E850197F2
S11313509E878D878D859E85892B69F714C0698545
S11313607A858B859C850E94BB0BDC01CB019E8713
S11313708D878D859E859A8B898B89899A8901971A
S1131380F1F79A8B898B88E290E028E230E0F9014A
S113139020812460FC01208388E290E028E230E090
S11313A0F90120812D7FFC01208381E20E946D08D8
S11313B083E10E946D0886E00E946D0882EC0E9421
S11313C06D0880E20E946D0889E00E946D0880E843
S11313D00E946D0880E40E946D0800E010E005C0E2
S11313E080E00E947C080F5F1F4F083FF1E01F0759
S11313F0B8F388E00E946D088CE00E946D0800003C
S11314006C960FB6F894DEBF0FBECDBFDF91CF91BF
S11314101F910F9108950F931F93CF93DF93CDB72F
S1131420DEB780E80E946D0880E40E946D08109287
S11314304A0310924B0300E010E007C0C8018E5A23
S11314409E4FFC0110820F5F1F4F083FF1E01F0702
S1131450A8F30000DF91CF911F910F910895CF93CE
S1131460DF9300D000D01F92CDB7DEB78B836C839F
S11314704D838C81869586958695882F90E044E5EA
S1131480489F9001499F300D11248B81882F90E053
S1131490820F931F8E5A9E4F9A8389838D8188234E
S11314A0C9F089819A81FC018081482F8C81882F21
S11314B090E09C012770332781E090E002C0880F00
S11314C0991F2A95E2F7842B282F89819A81FC01A0
S11314D0208319C089819A81FC018081482F8C81E5
S11314E0882F90E09C012770332781E090E002C0B0
S11314F0880F991F2A95E2F780958423282F8981E4
S11315009A81FC01208300000F900F900F900F90A0
S11315100F90DF91CF9108950F931F93CF93DF9393
S113152000D000D01F92CDB7DEB78C836D8310E05E
S113153065C000E04EC08C81882F90E09C01205251
S113154031099D81812F692F0E940E0D482F50E093
S1131550C901880F991F880F991F820F931F840F49
S1131560951F88599F4F9A83898389819A81FC01A9
S113157084918B838B81282F30E09D81802F692F6C
S11315800E940E0D882F90E0A90102C05595479541
S11315908A95E2F7CA0181709927892B61F08091BD
S11315A04B03982F900F80914A03810F41E0692FDC
S11315B00E942F0A0BC080914B03982F900F8091AB
S11315C04A03810F40E0692F0E942F0A802F01E017
S11315D0080F402F50E08D81282F30E0C901880F7B
S11315E0991F880F991F880F991F821B930B481707
S11315F059070CF4A0CF812F11E0180F412F50E0B0
S11316008D81282F30E0C901880F991F880F991FF9
S1131610820F931F481759070CF48BCF20914A036C
S11316209D81892F880F880F890F820F8F5F809388
S11316304A0380914A03843570F010924A03209142
S11316404B039D81892F880F880F880F891B820F78
S11316508F5F80934B0380914B03803320F0109273
S11316604A0310924B0300000F900F900F900F90BD
S11316700F90DF91CF911F910F910895CF93DF9336
S113168000D01F92CDB7DEB79A8389836B830CC0D9
S113169089819A819C012F5F3F4F3A832983FC0102
S11316A080816B810E948C0A89819A81FC018081EE
S11316B0882371F700000F900F900F90DF91CF9166
S11316C00895CF93DF9300D000D0CDB7DEB78A83DF
S11316D06B834C838A81898308C041E069818B8153
S11316E00E942F0A89818F5F898399818C81891750
S11316F0A0F700000F900F900F900F90DF91CF9103
S11317000895CF93DF9300D0CDB7DEB789836A8382
S1131710898180934A038A8180934B0300000F9050
S11317200F90DF91CF9108950F931F93CF93DF9381
S1131730CDB7DEB780E80E946D0880E40E946D0892
S113174000E010E009C0C8018E5A9E4FFC01808160
S11317500E947C080F5F1F4F083FF1E01F0798F3BA
S11317600000DF91CF911F910F9108950E94270CE3
S113177008F481E008950E94530C88F09F5798F074
S1131780B92F9927B751B0F0E1F0660F771F881F82
S1131790991F1AF0BA95C9F714C0B13091F00E949C
S11317A06D0CB1E008950C946D0C672F782F882789
S11317B0B85F39F0B93FCCF3869577956795B395C3
S11317C0D9F73EF490958095709561957F4F8F4F32
S11317D09F4F0895E89409C097FB3EF49095809537
S11317E0709561957F4F8F4F9F4F9923A9F0F92FE3
S11317F096E9BB279395F695879577956795B79561
S1131800F111F8CFFAF4BB0F11F460FF1BC06F5F46
S11318107F4F8F4F9F4F16C0882311F096E911C058
S1131820772321F09EE8872F762F05C0662371F079
S113183096E8862F70E060E02AF09A95660F771F8D
S1131840881FDAF7880F9695879597F90895990F69
S11318500008550FAA0BE0E8FEEF16161706E80776
S1131860F907C0F012161306E407F50798F0621B97
S1131870730B840B950B39F40A2661F0232B242B6C
S1131880252B21F408950A2609F4A140A6958FEF8B
S1131890811D811D089557FD9058440F551F59F01F
S11318A05F3F71F04795880F97FB991F61F09F3F49
S11318B079F087950895121613061406551FF2CF72
S11318C04695F1DF08C0161617061806991FF1CFC2
S11318D086957105610508940895E894BB276627E9
S11318E07727CB0197F908950E94270C08F48FEF0E
S11318F008950E948C0C0C94FD0C0E94EF0C38F09F
S11319000E94F60C20F0952311F00C94E60C0C9434
S1131910EC0C11240C946E0C0E944B0C70F3959FEC
S1131920C1F3950F50E0551F629FF001729FBB27D2
S1131930F00DB11D639FAA27F00DB11DAA1F649F6E
S11319406627B00DA11D661F829F2227B00DA11D21
S1131950621F739FB00DA11D621F839FA00D611DA7
S1131960221F749F3327A00D611D231F849F600DC8
S1131970211D822F762F6A2F11249F5750409AF0F1
S1131980F1F088234AF0EE0FFF1FBB1F661F771F7D
S1131990881F91505040A9F79E3F510580F00C9448
S11319A0E60C0C946E0C5F3FE4F3983ED4F38695FA
S11319B077956795B795F795E7959F5FC1F7FE2BE8
S11319C0880F911D9695879597F9089597F99F67C4
S11319D080E870E060E008959FEF80EC08950024B3
S11319E00A941616170618060906089500240A9480
S11319F012161306140605060895092E0394000C06
S1131A0011F4882352F0BB0F40F4BF2B11F460FF94
S1131A1004C06F5F7F4F8F4F9F4F0895991B79E0EC
S1131A2004C0991F961708F0961B881F7A95C9F76A
S1131A3080950895A1E21A2EAA1BBB1BFD010DC0BF
S1131A40AA1FBB1FEE1FFF1FA217B307E407F5076A
S1131A5020F0A21BB30BE40BF50B661F771F881F46
S1131A60991F1A9469F760957095809590959B01DC
S1131A70AC01BD01CF010895052E97FB1EF400941F
S1131A800E94530D57FD07D00E941A0D07FC03D086
S1131A904EF40C94530D50954095309521953F4F3D
S1131AA04F4F5F4F089590958095709561957F4F46
S1131AB08F4F9F4F0895A29FB001B39FC001A39F72
S1131AC0700D811D1124911DB29F700D811D112473
S1131AD0911D0895AEE0B0E0E0E7FDE00C942B101A
S1131AE00D891E8986E08C831A8309838FEF9FE713
S1131AF09E838D83AE01475E5F4F6F89788DCE01E3
S1131B0001960E948C0DEF81F885E00FF11F108281
S1131B102E96E4E00C944710ABE0B0E0E2E9FDE07F
S1131B200C941D106C017B018A01FC011782168242
S1131B30838181FFCCC1CE0101963C01F6019381E2
S1131B40F70193FD859193FF81917F01882309F427
S1131B50BAC1853239F493FD859193FF81917F0158
S1131B60853229F4B60190E00E94830FE7CF912CCF
S1131B70212C312CFFE1F315D8F08B3279F038F4B5
S1131B80803279F08332A1F4232D20611DC08D327F
S1131B9061F0803369F4232D216016C0832D8260A7
S1131BA0382EE32DE4603E2E2AC0F32DF8601DC0CC
S1131BB037FC2DC020ED280F2A3040F08E32B9F4C6
S1131BC036FC81C1232D2064322E19C036FE06C096
S1131BD08AE0989E200D1124922E11C0EAE02E9ED8
S1131BE0200D1124222EF32DF0623F2E08C08C36D6
S1131BF021F4832D8068382E02C0883641F4F70121
S1131C0093FD859193FF81917F018111B3CF982F2B
S1131C109F7D9554933028F40C5F1F4F9FE3998365
S1131C200DC0833631F0833771F0833509F059C024
S1131C3021C0F801808189830E5F1F4F882483941B
S1131C40912C530113C02801F2E04F0E511CF801EE
S1131C50A080B18036FE03C0692D70E002C06FEF32
S1131C607FEFC5010E94780F4C018201F32DFF77AD
S1131C703F2E16C0280122E0420E511CF801A0801C
S1131C80B18036FE03C0692D70E002C06FEF7FEFB4
S1131C90C5010E946D0F4C01F32DF0683F2E8201A7
S1131CA033FC1BC0822D90E088169906B0F4B6016F
S1131CB080E290E00E94830F2A94F4CFF50137FC70
S1131CC0859137FE81915F01B60190E00E94830FF8
S1131CD021102A9421E0821A91088114910471F749
S1131CE0E8C0843611F0893641F5F80137FE07C0A3
S1131CF060817181828193810C5F1F4F08C0608174
S1131D007181072E000C880B990B0E5F1F4FF32D6A
S1131D10FF763F2E97FF09C0909580957095619549
S1131D207F4F8F4F9F4FF0683F2E2AE030E0A30192
S1131D300E94BF0F882E861845C0853731F4232DA5
S1131D402F7EB22E2AE030E025C0932D997FB92E44
S1131D508F36C1F018F4883579F0B5C0803719F0A2
S1131D60883721F0B0C0E92FE061BE2EB4FE0DC06B
S1131D70FB2DF460BF2E09C034FE0AC0292F266053
S1131D80B22E06C028E030E005C020E130E002C0F9
S1131D9020E132E0F801B7FE07C0608171818281E1
S1131DA093810C5F1F4F06C06081718180E090E0D9
S1131DB00E5F1F4FA3010E94BF0F882E8618FB2DB4
S1131DC0FF773F2E36FE0DC0232D2E7FA22E8914C1
S1131DD058F434FE0BC032FC09C0832D8E7EA82E2D
S1131DE005C0B82CA32C03C0B82C01C0B92CA4FE88
S1131DF00FC0FE01E80DF11D8081803321F49A2D7E
S1131E00997EA92E09C0A2FE06C0B394B39404C05F
S1131E108A2D867809F0B394A3FC11C0A0FE06C0F5
S1131E20B21488F4280C922C9B180EC0B21460F4DF
S1131E30B60180E290E00E94830FB394F7CFB2140E
S1131E4018F42B1802C0982C212CA4FE10C0B60143
S1131E5080E390E00E94830FA2FE17C0A1FC03C0A0
S1131E6088E790E002C088E590E0B6010CC08A2DB6
S1131E70867859F0A1FE02C08BE201C080E2A7FC83
S1131E808DE2B60190E00E94830F891438F4B60104
S1131E9080E390E00E94830F9A94F7CF8A94F30131
S1131EA0E80DF11D8081B60190E00E94830F81103E
S1131EB0F5CF222009F442CEB60180E290E00E94E0
S1131EC0830F2A94F6CFF6018681978102C08FEFA3
S1131ED09FEF2B96E2E10C943910FC0105906150C0
S1131EE070400110D8F7809590958E0F9F1F08952C
S1131EF0FC016150704001900110D8F780959095D5
S1131F008E0F9F1F08950F931F93CF93DF93FB01B1
S1131F10238121FD03C08FEF9FEF2CC022FF16C049
S1131F2046815781248135814217530744F4A081A7
S1131F30B1819D012F5F3F4F318320838C93268194
S1131F4037812F5F3F4F3783268314C08B01EC0109
S1131F50FB010084F185E02D0995892BE1F6D80178
S1131F6016968D919C911797019617969C938E9334
S1131F701697CE01DF91CF911F910F910895FA0129
S1131F80AA27283051F1203181F1E8946F936E7FB4
S1131F906E5F7F4F8F4F9F4FAF4FB1E03ED0B4E0A5
S1131FA03CD0670F781F891F9A1FA11D680F791FE6
S1131FB08A1F911DA11D6A0F711D811D911DA11DF7
S1131FC020D009F468943F912AE0269F1124301907
S1131FD0305D3193DEF6CF010895462F4770405DA2
S1131FE04193B3E00FD0C9F7F6CF462F4F70405D51
S1131FF04A3318F0495D31FD4052419302D0A9F7AC
S1132000EACFB4E0A6959795879577956795BA95A5
S1132010C9F700976105710508959B01AC010A2E6B
S113202006945795479537952795BA95C9F7620F42
S1132030731F841F951FA01D08952F923F924F92E6
S11320405F926F927F928F929F92AF92BF92CF9244
S1132050DF92EF92FF920F931F93CF93DF93CDB74D
S1132060DEB7CA1BDB0B0FB6F894DEBF0FBECDBFC5
S113207009942A88398848885F846E847D848C8496
S11320809B84AA84B984C884DF80EE80FD800C819F
S11320901B81AA81B981CE0FD11D0FB6F894DEBF82
S10F20A00FBECDBFED010895F894FFCFF2
S11320AC008813B80BE803000000000F00070003BE
S11320BC0001000001F000700030001000257500D4
S11320CC4D6F646F00542E5664007300542E566D7D
S11320DC00542E416D003C00632F6D696E006C75CD
S10520EC780076
S9030000FC
